:020000040800F2
:10200000005000200D2100083D2100083D2100085E
:102010003D2100083D2100083D210008000000008E
:102020000000000000000000000000003D2100084A
:102030003D210008000000003D2100083D2100086E
:102040003D2100083D2100083D2100083D210008F8
:102050003D2100083D2100083D2100083D210008E8
:102060003D2100083D2100083D2100083D210008D8
:102070003D2100083D2100083D2100083D210008C8
:102080003D2100083D2100083D210008000000001E
:102090000000000000000000000000003D210008DA
:1020A0000000000000000000000000000000000030
:1020B0003D2100083D2100083D2100083D21000888
:1020C0003D2100083D2100083D2100083D21000878
:1020D0003D2100083D2100083D2100083D21000868
:1020E0003D2100083D210008000000000000000024
:1020F00000000000000000000000000000000000E0
:0C210000000000000000000000000000D3
:10210C00002103E00C4B5B58435004310B480C4B43
:10211C0042189A42F6D30B4A02E0002342F8043BE1
:10212C00094B9A42F9D300F0C3F870478D467047BB
:10213C0000F00CF8FEE70000C822000800000020A8
:10214C000000002000000020000000200B4A9369D2
:10215C0043F0100393610A4B5A6842F440125A60E0
:10216C005A6822F440025A601A6942F400521A6109
:10217C001A6942F000521A61F6E700BF00100240E3
:10218C0000100140114A936943F004039361104B12
:10219C00D3F8041841F00B01C3F80418D3F8041851
:1021AC0021F00401C3F80418D3F8041841F00B0112
:1021BC00C3F80418D3F8041821F00401C3F8041868
:1021CC00536843F0E0635360704700BF0010024057
:1021DC00000001404FF0E02342F228325A61704770
:1021EC004FF0E023002100B9704719611A6942F0E1
:1021FC0001021A611A69D203FCD51A69013822F05E
:10220C0001021A61EFE708B50E4A0F4C936943F0CF
:10221C0010039361636823F470036360636843F491
:10222C000013636023694FF47A7043F40053236105
:10223C00FFF7D6FF2369642043F000532361FFF7B7
:10224C00CFFFEFE7001002400010014008B5164820
:10225C00036843F48033036003689A03FCD5436836
:10226C0043F4E0134360436843F4803343604368B2
:10227C0043F480634360036843F080730360036836
:10228C009B01FCD5FFF77EFF084A136843F002035D
:10229C001360436842F2283243F0020343604FF06C
:1022AC00E0235A6108BD00BF00100240002002402C
:0C22BC0008B5FFF7CBFFFFF7A6FF0000FE
:040000050800210CC2
:00000001FF
