:020000040800F2
:1000000000500020C9050008F5050008F5050008A6
:10001000F5050008F5050008F505000800000000DA
:10002000000000000000000000000000F5050008CE
:10003000F505000800000000F5050008F5050008BA
:10004000F5050008F5050008F5050008F5050008A8
:10005000F5050008F5050008F5050008F505000898
:10006000F5050008F5050008F5050008F505000888
:10007000F5050008F5050008F5050008F505000878
:10008000F5050008F5050008F5050008000000006A
:10009000000000000000000000000000F50500085E
:1000A0000000000000000000000000000000000050
:1000B000F5050008F5050008F5050008F505000838
:1000C000F5050008F5050008F5050008F505000828
:1000D000F5050008F5050008F5050008F505000818
:1000E000F5050008F505000800000000000000000C
:1000F0000000000000000000000000000000000000
:0C010000000000000000000000000000F3
:10010C00034B044A5A6002F188325A60704700BFB0
:10011C00002002402301674537B50546002D4FF0FE
:10012C0000001FDD4FF0E0242061236943F0010340
:10013C0023612369DB0305D52369013D23F001030A
:10014C002361EBE70621684600F08AFB052268462E
:10015C00054900F001FC0028EBD10120236923F0B4
:10016C000103236103B030BDDC0900087047002295
:10017C0010B50A4B8A4200DB10BDDC68E407FCD4E6
:10018C0000EB82245C611C69013244F002041C61A6
:10019C001C6944F040041C61ECE700BF00200240E5
:1001AC0030B500240D4B944207DBDA68D207FCD43F
:1001BC001A6922F001021A6130BDDD68ED07FCD42A
:1001CC001D6945F001051D6131F8145020F81450DB
:1001DC00DD68ED07FCD40134E5E700BF00200240E8
:1001EC00462808B50BD8402810D83038C3B2092B94
:1001FC000ED9084800F04AFB4FF0FF3008E0A0F1A0
:10020C006103052BF5D8C0F16B0001E0C0F14B0088
:10021C0008BD00BFE20900080346002201209A42F3
:10022C0000DB704700010132F9E700232DE9F041B2
:10023C000C461E46451E9C4203F1010802DC30466A
:10024C00BDE8F081A4EB0800FFF7E6FF074615F8C0
:10025C00010FFFF7C5FF434600FB0766EBE738B518
:10026C0000F0DEFA044600F0DBFA05462046FFF704
:10027C00B7FF04462846FFF7B3FF00EB041038BD68
:10028C0037B5002401AD00F0CBFA0134042C05F88D
:10029C00010BF8D1214601A8FFF7C7FF03B030BD11
:1002AC000023C0E90233C0E90433036003718361A6
:1002BC00704707B500F0B4FA8DF8040000F0B0FAFE
:1002CC0002218DF8050001A8FFF7AFFFC0B203B003
:1002DC005DF804FB73B506460D460024AC4201DB09
:1002EC0002B070BD00F09CFA8DF8040000F098FA92
:1002FC0002218DF8050001A8FFF797FF3055013456
:10030C00ECE707B500F08CFA8DF8040000F088FAE1
:10031C0002218DF8050001A8FFF787FF03B05DF8F7
:10032C0004FB08B503460168D3E902038B4205D3ED
:10033C00FFF7D0FFFFF7E5FF002008BD4FF0FF30BF
:10034C00FBE713B50446022101A8FFF7C3FF9DF894
:10035C0005309DF804201B0443EA02636361FFF738
:10036C00D0FF002002B010BD13B5042104460DEBE4
:10037C000100FFF7AFFF019B1BBAA361FFF7C1FFA1
:10038C00002002B010BD10B5044600F049FA3A281E
:10039C00FBD1FFF764FF2060FFF772FF2061FFF7CE
:1003AC0088FF20710528F0D801A353F820F000BF76
:1003BC00D5030008DF030008ED030008ED03000877
:1003CC00F3030008FD0300082046BDE81040FFF7CA
:1003DC00A8BFFFF796FFFF2808D0074800F056FA91
:1003EC00064800F053FA2046FFF7ABFF002010BD83
:1003FC002046FFF7B9FFF9E7F90900080F0A0008D2
:10040C00F0B52148ADF2144D00F03FFA1C211F4805
:10041C00FFF7ADFE1E4800F038FA00251D4E0024F3
:10042C00680000F1006000F5005704AA318901F062
:10043C00010303EB510361198B4207DD37F8023BD3
:10044C000134B4F5007F22F8023BEFD1224604A917
:10045C0000F51040FFF7A4FE0F4800F016FA01A9B2
:10046C000A22204600F0CEF8254401A800F00DFA2F
:10047C000A22284601A900F0C5F8084800F005FA40
:10048C0001A800F002FACAE71E0A00080090000852
:10049C003D0A0008001F0008650A0008780A0008D9
:1004AC0007B500F0BDF91228FBD100230DF10600B1
:1004BC000221ADF8063000F0D3F9BDF8060003B008
:1004CC005DF804FB30B52948ADF2144D038823B90F
:1004DC00274800F0DAF9FFF793FF002301220DF112
:1004EC000201ADF80230FFF75BFE224800F0CDF9B7
:1004FC001C212148FFF73BFE204800F0C6F920489C
:10050C0000F0C3F9FFF7CCFF04460A2201A900F062
:10051C0079F81C4800F0B9F901A800F0B6F91A48AE
:10052C0000F0B3F9B4F5806F10DC04F0010505EBB5
:10053C006405164800F0A9F9214604A800F090F9CA
:10054C002A460D4804A9FFF72BFEF2E7104800F0ED
:10055C009CF904A84FF4806100F082F94FF400720A
:10056C00054804A9FFF71CFEF0E700BF001F0008B8
:10057C00930A0008CB0A000800200008EB0A0008C8
:10058C00060B0008330B0008470B0008840B00080F
:10059C00710B00084FF0E02300221A615A6170477A
:1005AC0008B5044B1B881BB9034800F045F9FEE75E
:1005BC0008BD00BF001F0008A10B0008002103E0CC
:1005CC000B4B5B58435004310A480B4B42189A4270
:1005DC00F6D30A4A02E0002342F8043B084B9A4245
:1005EC00F9D300F055F9704700F031F8FEE7000040
:1005FC003C0C00080000002000000020000000203F
:10060C000000002070B528B9012A02DD30234870A3
:10061C000B7070BD034600240A2593FBF5F32246AC
:10062C000134002BF9D10A268D1890FBF6F406FB49
:10063C001400934200F1300005F8010903F10103A5
:10064C00204601D00028F0D10022CA54E1E70B4A21
:10065C00936943F010039361094B5A6842F44012BA
:10066C005A605A6822F440025A601A6942F40052E5
:10067C001A611A6942F000521A61F6E70010024042
:10068C00001001400B4B9A6942F004029A610A4A2D
:10069C00D2F8041841F00B01C2F80418D2F804186F
:1006AC0021F00401C2F804185A6842F0E0625A6062
:1006BC00704700BF00100240000001404FF0E023E3
:1006CC0042F228325A6170474FF0E023002100B902
:1006DC00704719611A6942F001021A611A69D20352
:1006EC00FCD51A69013822F001021A61EFE70546C0
:1006FC0008B50E4A0E4C936943F01003936163687E
:10070C0023F470036360636843F40013636023692C
:10071C00284643F400532361FFF7D6FF236928468C
:10072C0043F000532361FFF7CFFFF0E700100240C6
:10073C000010014008B51648036843F48033036089
:10074C0003689A03FCD5436843F4E01343604368A1
:10075C0043F480334360436843F48063436003682D
:10076C0043F08073036003689B01FCD5FFF78AFF9D
:10077C00084A136843F002031360436842F22832BC
:10078C0043F0020343604FF0E0235A6108BD00BF01
:10079C0000100240002002401A4B9A6942F00102FC
:1007AC009A619A6942F004029A61174AD2F80418C5
:1007BC0021F47F61C2F80418D2F8041841F0B0019A
:1007CC00C2F80418D2F8041841F48061C2F8041875
:1007DC009A6942F480429A6141F64C52A3F5604307
:1007EC00C3F808284FF40052C3F80C280022C3F8B1
:1007FC001028C3F81428D3F80C2842F00C02C3F8C4
:10080C000C2870470010024000000140034BD3F845
:10081C0000281206FBD5C3F80408704700300140CD
:10082C00044BD3F800289206FBD5D3F80408C0B2C9
:10083C00704700BF0030014008B5411E11F8010F90
:10084C0000B908BDFFF7E2FFF8E71FB50A2201A9BE
:10085C00FFF7D8FE0846FFF7EFFF05B05DF804FB85
:10086C0038B5044600250139A94202D80023635447
:10087C000AE0FFF7D5FF0D28605505F1010501D001
:10088C000A28F1D10023635538BD7047704700BF6B
:10089C002DE9F047A0B0FFF74DFFFFF77DFF07AA4A
:1008AC000023029264226846CDE903230693009349
:1008BC008DF804300593FFF766FDDDE90276DDE97E
:1008CC0004A90446009D9DF8048018B11948FFF74F
:1008DC00DDFFFEE71848FFF7AFFF1848FFF7ACFF46
:1008EC005046FFF7B2FF1648FFF7A6FF4846FFF742
:1008FC00ACFF1448FFF7A0FF2846FFF7A6FF1248ED
:10090C00FFF79AFF4046FFF7A0FF1048FFF794FF50
:10091C00A542C4D0A642C2D02046FFF796FF0C4891
:10092C00FFF78AFF385DFFF790FF0A48FFF784FF57
:10093C000134EDE7D80B0008E10B0008F60B0008BA
:10094C00020C0008130C0008220C0008320C0008E2
:10095C002F0C0008390C00089AB3034630B543EA53
:10096C000104A4078646084618D1032A07D815E0C7
:10097C00043A24D01CF0803F21D1032A25D901460A
:10098C00DEF800407346A4F1013020EA040C08465E
:10099C0050F8045B0EF1040EAC42E9D018780C78D8
:1009AC00013AA04208BFD21807D00CE040B113F8AE
:1009BC00010F11F8014FA04205D19342F6D100204E
:1009CC0030BD10467047001B30BD73460146E5E74D
:1009DC00737461727400496E76616C6964206E7513
:1009EC006D20636F6E76657273696F6E004F682051
:1009FC006E6F2120454F4620697320696E76616CBD
:100A0C00696400556E696D706C656D656E746564B6
:100A1C0021000A45726173696E67207468652062F3
:100A2C0061636B757020726567696F6E732E2E2E05
:100A3C00000A5472616E7366657272696E67206427
:100A4C0061746120746F20746865206261636B75DA
:100A5C007020726567696F6E000A57726F7465203B
:100A6C0068616C66776F7264733A20000A546F7415
:100A7C00616C2068616C66776F7264732077726941
:100A8C007474656E3A20000A56616C69642066695C
:100A9C00726D7761726520666F756E642120547279
:100AAC00616E7366657272696E6720746F20626125
:100ABC00636B757020726567696F6E2E2E2E000A3F
:100ACC0045726173696E67206170706C69636174E3
:100ADC00696F6E20726567696F6E2E2E2E2E000A5E
:100AEC0057616974696E6720666F72206D61676902
:100AFC006320636F64652E2E2E000A476F7420747A
:100B0C006865206D6167696320636F64652C20776D
:100B1C00616974696E6720666F72206D65746164BB
:100B2C006174612E2E2E000A53697A65206F66203F
:100B3C006669726D776172653A20000A5265636569
:100B4C006976696E67206461746120616E642066E9
:100B5C006C757368696E6720696E20706167657368
:100B6C002E2E2E2E000A466C617368696E67206FFC
:100B7C006E652070616765000A466C617368696E0A
:100B8C0067206C657373207468616E206F6E6520CE
:100B9C007061676500426F7468206669726D776179
:100BAC007265732061726520696E76616C6964216F
:100BBC002121212048616E67696E6720696E64652A
:100BCC0066696E6974656C79212121004572726FBA
:100BDC007221212100526563656976656420686520
:100BEC0078207265636F726421000D0A416464722F
:100BFC006573733A20000D0A426173652041646489
:100C0C00726573733A20000D0A4279746520436F44
:100C1C00756E743A20000D0A5265636F726420542D
:100C2C007970653A20000D0A446174613A0D0A002E
:04000005080005C822
:00000001FF
