:020000040800F2
:10000000005000200D0600083906000839060008D7
:10001000390600083906000839060008000000000B
:100020000000000000000000000000003906000889
:1000300039060008000000003906000839060008EB
:100040003906000839060008390600083906000894
:100050003906000839060008390600083906000884
:100060003906000839060008390600083906000874
:100070003906000839060008390600083906000864
:10008000390600083906000839060008000000009B
:100090000000000000000000000000003906000819
:1000A0000000000000000000000000000000000050
:1000B0003906000839060008390600083906000824
:1000C0003906000839060008390600083906000814
:1000D0003906000839060008390600083906000804
:1000E0003906000839060008000000000000000082
:1000F0000000000000000000000000000000000000
:0C010000000000000000000000000000F3
:10010C0070B548B100230A258C18013A9A4200DDDB
:10011C0040B90022CA5404E0012A02DD30234870A1
:10012C000B7070BD90FBF5F605FB1600303004F833
:10013C00010D01333046E9E70B4A936943F0100394
:10014C0093610A4B5A6842F440125A605A6822F47E
:10015C0040025A601A6942F400521A611A6942F05C
:10016C0000521A61F6E700BF001002400010014077
:10017C000B4B9A6942F004029A610A4AD2F80418AD
:10018C0041F00B01C2F80418D2F8041821F0040154
:10019C00C2F804185A6842F0E0625A60704700BF17
:1001AC0000100240000001404FF0E02342F22832E0
:1001BC005A6170474FF0E023002100B97047196174
:1001CC001A6942F001021A611A69D203FCD51A6944
:1001DC00013822F001021A61EFE7054608B50E4A14
:1001EC000E4C936943F010039361636823F470031E
:1001FC006360636843F4001363602369284643F427
:10020C0000532361FFF7D6FF2369284643F00053C0
:10021C002361FFF7CFFFF0E7001002400010014010
:10022C0008B51648036843F48033036003689A03E7
:10023C00FCD5436843F4E0134360436843F48033D4
:10024C004360436843F480634360036843F0807306
:10025C00036003689B01FCD5FFF78AFF084A13680B
:10026C0043F002031360436842F2283243F0020366
:10027C0043604FF0E0235A6108BD00BF00100240FC
:10028C00002002401A4B9A6942F001029A619A6965
:10029C0042F004029A61174AD2F8041821F47F61E3
:1002AC00C2F80418D2F8041841F0B001C2F80418CE
:1002BC00D2F8041841F48061C2F804189A6942F427
:1002CC0080429A6141F64C52A3F56043C3F808286A
:1002DC004FF40052C3F80C280022C3F81028C3F8BE
:1002EC001428D3F80C2842F00C02C3F80C287047E1
:1002FC000010024000000140034BD3F80028120606
:10030C00FBD5C3F80408704700300140044BD3F808
:10031C0000289206FBD5D3F80408C0B2704700BF82
:10032C000030014008B5411E11F8010F00B908BD9D
:10033C00FFF7E2FFF8E738B5044600250139A9427A
:10034C0002D80023635408E0FFF7E0FF0D28605546
:10035C0005F10105F3D10023635538BDFFF7E2BF6A
:10036C0008B5FFF7DFFFFFF7E7FE034B034A5A60C0
:10037C0002F188325A607047002002402301674521
:10038C0010B54FF0E02300241049002801DC0020B8
:10039C001AE01C611A6942F001021A611A69D2034F
:1003AC0005D51A69013822F001021A61EDE7D1F87E
:1003BC0000289206F2D5D1F80428272AEED1012084
:1003CC001A6922F001021A6110BD00BF0030014011
:1003DC007047002210B50A4B8A4200DB10BDDC6866
:1003EC00E407FCD400EB82245C611C69013244F00C
:1003FC0002041C611C6944F040041C61ECE700BF62
:10040C000020024030B500240D4B944207DBDA6823
:10041C00D207FCD41A6922F001021A6130BDDD68E2
:10042C00ED07FCD41D6945F001051D6131F8145030
:10043C0020F81450DD68ED07FCD40134E5E700BF6B
:10044C0000200240F0B52148ADF2144DFFF76AFFD1
:10045C001C211F48FFF7BDFF1E48FFF763FF002557
:10046C001D4E0024680000F1006000F5005704AA3E
:10047C00318901F0010303EB510361198B4207DD54
:10048C0037F8023B0134B4F5007F22F8023BEFD180
:10049C00224604A900F51040FFF7B4FF0F48FFF700
:1004AC0041FF01A90A222046FFF72AFE25440846EF
:1004BC00FFF738FF0A22284601A9FFF721FE08485A
:1004CC00FFF730FF01A8FFF72DFFCAE76C06000805
:1004DC00009000088B060008001F0008B3060008F7
:1004EC00C606000807B5FFF711FF1228FBD1002341
:1004FC000DF106000221ADF80630FFF71CFFBDF828
:10050C00060003B05DF804FB30B52948ADF2144D7C
:10051C00038823B92748FFF705FFFFF793FF002354
:10052C0001220DF10201ADF80230FFF76BFF2248FA
:10053C00FFF7F8FE1C212148FFF74BFF2048FFF77F
:10054C00F1FE2048FFF7EEFEFFF7CCFF04460A222F
:10055C0001A9FFF7D5FD1C48FFF7E4FE01A8FFF742
:10056C00E1FE1A48FFF7DEFEB4F5806F10DC04F0F4
:10057C00010505EB64051648FFF7D4FE214604A8D7
:10058C00FFF7D9FE2A460D4804A9FFF73BFFF2E717
:10059C001048FFF7C7FE04A84FF48061FFF7CBFEAD
:1005AC004FF40072054804A9FFF72CFFF0E700BFD9
:1005BC00001F0008E10600081907000800200008C9
:1005CC003907000854070008810700089507000840
:1005DC00D2070008BF0700084FF0E02300221A6181
:1005EC005A61704708B5044B1B881BB90348FFF7C9
:1005FC0099FEFEE708BD00BF001F0008EF070008CA
:10060C00002103E00B4B5B58435004310A480B4B61
:10061C0042189A42F6D30A4A02E0002342F8043BFD
:10062C00084B9A42F9D300F00FF87047FFF784FD9E
:10063C00FEE7000030080008000000200000002049
:10064C00000000200000002008B5FFF7E9FDFFF7CF
:10065C0019FE0248FFF766FEFBE700BF26080008FC
:10066C000A45726173696E67207468652062616304
:10067C006B757020726567696F6E732E2E2E000A73
:10068C005472616E7366657272696E672064617410
:10069C006120746F20746865206261636B757020D3
:1006AC00726567696F6E000A57726F7465206861B6
:1006BC006C66776F7264733A20000A546F74616CC5
:1006CC002068616C66776F726473207772697474DA
:1006DC00656E3A20000A56616C6964206669726D19
:1006EC007761726520666F756E6421205472616E3D
:1006FC007366657272696E6720746F206261636BDA
:10070C00757020726567696F6E2E2E2E000A457209
:10071C006173696E67206170706C69636174696F75
:10072C006E20726567696F6E2E2E2E2E000A576131
:10073C006974696E6720666F72206D6167696320EA
:10074C00636F64652E2E2E000A476F7420746865E3
:10075C00206D6167696320636F64652C2077616924
:10076C0074696E6720666F72206D65746164617464
:10077C00612E2E2E000A53697A65206F66206669F9
:10078C00726D776172653A20000A5265636569760D
:10079C00696E67206461746120616E6420666C759B
:1007AC007368696E6720696E2070616765732E2EA1
:1007BC002E2E000A466C617368696E67206F6E6539
:1007CC002070616765000A466C617368696E67200A
:1007DC006C657373207468616E206F6E6520706138
:1007EC00676500426F7468206669726D7761726527
:1007FC00732061726520696E76616C6964212121B8
:10080C00212048616E67696E6720696E6465666950
:10081C006E6974656C792121210048656C6C6F0AD6
:04082C0000000000C8
:040000050800060CDD
:00000001FF
